{
  "_format": "hh-sol-artifact-1",
  "contractName": "BasicNFT",
  "sourceName": "contracts/test/BasicNFT.sol",
  "abi": [
    {
      "inputs": [],
      "stateMutability": "nonpayable",
      "type": "constructor"
    },
    {
      "anonymous": false,
      "inputs": [
        {
          "indexed": true,
          "internalType": "address",
          "name": "owner",
          "type": "address"
        },
        {
          "indexed": true,
          "internalType": "address",
          "name": "approved",
          "type": "address"
        },
        {
          "indexed": true,
          "internalType": "uint256",
          "name": "tokenId",
          "type": "uint256"
        }
      ],
      "name": "Approval",
      "type": "event"
    },
    {
      "anonymous": false,
      "inputs": [
        {
          "indexed": true,
          "internalType": "address",
          "name": "owner",
          "type": "address"
        },
        {
          "indexed": true,
          "internalType": "address",
          "name": "operator",
          "type": "address"
        },
        {
          "indexed": false,
          "internalType": "bool",
          "name": "approved",
          "type": "bool"
        }
      ],
      "name": "ApprovalForAll",
      "type": "event"
    },
    {
      "anonymous": false,
      "inputs": [
        {
          "indexed": true,
          "internalType": "address",
          "name": "from",
          "type": "address"
        },
        {
          "indexed": true,
          "internalType": "address",
          "name": "to",
          "type": "address"
        },
        {
          "indexed": true,
          "internalType": "uint256",
          "name": "tokenId",
          "type": "uint256"
        }
      ],
      "name": "Transfer",
      "type": "event"
    },
    {
      "inputs": [],
      "name": "TOKEN_URI",
      "outputs": [
        {
          "internalType": "string",
          "name": "",
          "type": "string"
        }
      ],
      "stateMutability": "view",
      "type": "function"
    },
    {
      "inputs": [
        {
          "internalType": "address",
          "name": "to",
          "type": "address"
        },
        {
          "internalType": "uint256",
          "name": "tokenId",
          "type": "uint256"
        }
      ],
      "name": "approve",
      "outputs": [],
      "stateMutability": "nonpayable",
      "type": "function"
    },
    {
      "inputs": [
        {
          "internalType": "address",
          "name": "owner",
          "type": "address"
        }
      ],
      "name": "balanceOf",
      "outputs": [
        {
          "internalType": "uint256",
          "name": "",
          "type": "uint256"
        }
      ],
      "stateMutability": "view",
      "type": "function"
    },
    {
      "inputs": [
        {
          "internalType": "uint256",
          "name": "tokenId",
          "type": "uint256"
        }
      ],
      "name": "getApproved",
      "outputs": [
        {
          "internalType": "address",
          "name": "",
          "type": "address"
        }
      ],
      "stateMutability": "view",
      "type": "function"
    },
    {
      "inputs": [],
      "name": "getTokenCounter",
      "outputs": [
        {
          "internalType": "uint256",
          "name": "",
          "type": "uint256"
        }
      ],
      "stateMutability": "view",
      "type": "function"
    },
    {
      "inputs": [
        {
          "internalType": "address",
          "name": "owner",
          "type": "address"
        },
        {
          "internalType": "address",
          "name": "operator",
          "type": "address"
        }
      ],
      "name": "isApprovedForAll",
      "outputs": [
        {
          "internalType": "bool",
          "name": "",
          "type": "bool"
        }
      ],
      "stateMutability": "view",
      "type": "function"
    },
    {
      "inputs": [],
      "name": "mintNFT",
      "outputs": [
        {
          "internalType": "uint256",
          "name": "",
          "type": "uint256"
        }
      ],
      "stateMutability": "nonpayable",
      "type": "function"
    },
    {
      "inputs": [],
      "name": "name",
      "outputs": [
        {
          "internalType": "string",
          "name": "",
          "type": "string"
        }
      ],
      "stateMutability": "view",
      "type": "function"
    },
    {
      "inputs": [
        {
          "internalType": "uint256",
          "name": "tokenId",
          "type": "uint256"
        }
      ],
      "name": "ownerOf",
      "outputs": [
        {
          "internalType": "address",
          "name": "",
          "type": "address"
        }
      ],
      "stateMutability": "view",
      "type": "function"
    },
    {
      "inputs": [
        {
          "internalType": "address",
          "name": "from",
          "type": "address"
        },
        {
          "internalType": "address",
          "name": "to",
          "type": "address"
        },
        {
          "internalType": "uint256",
          "name": "tokenId",
          "type": "uint256"
        }
      ],
      "name": "safeTransferFrom",
      "outputs": [],
      "stateMutability": "nonpayable",
      "type": "function"
    },
    {
      "inputs": [
        {
          "internalType": "address",
          "name": "from",
          "type": "address"
        },
        {
          "internalType": "address",
          "name": "to",
          "type": "address"
        },
        {
          "internalType": "uint256",
          "name": "tokenId",
          "type": "uint256"
        },
        {
          "internalType": "bytes",
          "name": "data",
          "type": "bytes"
        }
      ],
      "name": "safeTransferFrom",
      "outputs": [],
      "stateMutability": "nonpayable",
      "type": "function"
    },
    {
      "inputs": [
        {
          "internalType": "address",
          "name": "operator",
          "type": "address"
        },
        {
          "internalType": "bool",
          "name": "approved",
          "type": "bool"
        }
      ],
      "name": "setApprovalForAll",
      "outputs": [],
      "stateMutability": "nonpayable",
      "type": "function"
    },
    {
      "inputs": [
        {
          "internalType": "bytes4",
          "name": "interfaceId",
          "type": "bytes4"
        }
      ],
      "name": "supportsInterface",
      "outputs": [
        {
          "internalType": "bool",
          "name": "",
          "type": "bool"
        }
      ],
      "stateMutability": "view",
      "type": "function"
    },
    {
      "inputs": [],
      "name": "symbol",
      "outputs": [
        {
          "internalType": "string",
          "name": "",
          "type": "string"
        }
      ],
      "stateMutability": "view",
      "type": "function"
    },
    {
      "inputs": [
        {
          "internalType": "uint256",
          "name": "",
          "type": "uint256"
        }
      ],
      "name": "tokenURI",
      "outputs": [
        {
          "internalType": "string",
          "name": "",
          "type": "string"
        }
      ],
      "stateMutability": "view",
      "type": "function"
    },
    {
      "inputs": [
        {
          "internalType": "address",
          "name": "from",
          "type": "address"
        },
        {
          "internalType": "address",
          "name": "to",
          "type": "address"
        },
        {
          "internalType": "uint256",
          "name": "tokenId",
          "type": "uint256"
        }
      ],
      "name": "transferFrom",
      "outputs": [],
      "stateMutability": "nonpayable",
      "type": "function"
    }
  ],
  "bytecode": "0x60806040523480156200001157600080fd5b506040518060400160405280600381526020017f50756700000000000000000000000000000000000000000000000000000000008152506040518060400160405280600381526020017f5055470000000000000000000000000000000000000000000000000000000000815250816000908051906020019062000096929190620000c0565b508060019080519060200190620000af929190620000c0565b5050506000600681905550620001d5565b828054620000ce9062000170565b90600052602060002090601f016020900481019282620000f257600085556200013e565b82601f106200010d57805160ff19168380011785556200013e565b828001600101855582156200013e579182015b828111156200013d57825182559160200191906001019062000120565b5b5090506200014d919062000151565b5090565b5b808211156200016c57600081600090555060010162000152565b5090565b600060028204905060018216806200018957607f821691505b60208210811415620001a0576200019f620001a6565b5b50919050565b7f4e487b7100000000000000000000000000000000000000000000000000000000600052602260045260246000fd5b6124b280620001e56000396000f3fe608060405234801561001057600080fd5b50600436106101005760003560e01c80636e02007d11610097578063a22cb46511610066578063a22cb465146102af578063b88d4fde146102cb578063c87b56dd146102e7578063e985e9c51461031757610100565b80636e02007d1461022557806370a082311461024357806378ce90351461027357806395d89b411461029157610100565b806314f710fe116100d357806314f710fe1461019f57806323b872dd146101bd57806342842e0e146101d95780636352211e146101f557610100565b806301ffc9a71461010557806306fdde0314610135578063081812fc14610153578063095ea7b314610183575b600080fd5b61011f600480360381019061011a9190611953565b610347565b60405161012c9190611c61565b60405180910390f35b61013d610429565b60405161014a9190611c7c565b60405180910390f35b61016d600480360381019061016891906119ad565b6104bb565b60405161017a9190611bfa565b60405180910390f35b61019d60048036038101906101989190611913565b610501565b005b6101a7610619565b6040516101b49190611dfe565b60405180910390f35b6101d760048036038101906101d291906117fd565b610649565b005b6101f360048036038101906101ee91906117fd565b6106a9565b005b61020f600480360381019061020a91906119ad565b6106c9565b60405161021c9190611bfa565b60405180910390f35b61022d610750565b60405161023a9190611dfe565b60405180910390f35b61025d60048036038101906102589190611790565b61075a565b60405161026a9190611dfe565b60405180910390f35b61027b610812565b6040516102889190611c7c565b60405180910390f35b61029961082e565b6040516102a69190611c7c565b60405180910390f35b6102c960048036038101906102c491906118d3565b6108c0565b005b6102e560048036038101906102e09190611850565b6108d6565b005b61030160048036038101906102fc91906119ad565b610938565b60405161030e9190611c7c565b60405180910390f35b610331600480360381019061032c91906117bd565b61095a565b60405161033e9190611c61565b60405180910390f35b60007f80ac58cd000000000000000000000000000000000000000000000000000000007bffffffffffffffffffffffffffffffffffffffffffffffffffffffff1916827bffffffffffffffffffffffffffffffffffffffffffffffffffffffff1916148061041257507f5b5e139f000000000000000000000000000000000000000000000000000000007bffffffffffffffffffffffffffffffffffffffffffffffffffffffff1916827bffffffffffffffffffffffffffffffffffffffffffffffffffffffff1916145b806104225750610421826109ee565b5b9050919050565b60606000805461043890611fe7565b80601f016020809104026020016040519081016040528092919081815260200182805461046490611fe7565b80156104b15780601f10610486576101008083540402835291602001916104b1565b820191906000526020600020905b81548152906001019060200180831161049457829003601f168201915b5050505050905090565b60006104c682610a58565b6004600083815260200190815260200160002060009054906101000a900473ffffffffffffffffffffffffffffffffffffffff169050919050565b600061050c826106c9565b90508073ffffffffffffffffffffffffffffffffffffffff168373ffffffffffffffffffffffffffffffffffffffff16141561057d576040517f08c379a000000000000000000000000000000000000000000000000000000000815260040161057490611dbe565b60405180910390fd5b8073ffffffffffffffffffffffffffffffffffffffff1661059c610aa3565b73ffffffffffffffffffffffffffffffffffffffff1614806105cb57506105ca816105c5610aa3565b61095a565b5b61060a576040517f08c379a000000000000000000000000000000000000000000000000000000000815260040161060190611dde565b60405180910390fd5b6106148383610aab565b505050565b600061062733600654610b64565b60016006600082825461063a9190611ea7565b92505081905550600654905090565b61065a610654610aa3565b82610b82565b610699576040517f08c379a000000000000000000000000000000000000000000000000000000000815260040161069090611c9e565b60405180910390fd5b6106a4838383610c17565b505050565b6106c4838383604051806020016040528060008152506108d6565b505050565b6000806106d583610f11565b9050600073ffffffffffffffffffffffffffffffffffffffff168173ffffffffffffffffffffffffffffffffffffffff161415610747576040517f08c379a000000000000000000000000000000000000000000000000000000000815260040161073e90611d9e565b60405180910390fd5b80915050919050565b6000600654905090565b60008073ffffffffffffffffffffffffffffffffffffffff168273ffffffffffffffffffffffffffffffffffffffff1614156107cb576040517f08c379a00000000000000000000000000000000000000000000000000000000081526004016107c290611d5e565b60405180910390fd5b600360008373ffffffffffffffffffffffffffffffffffffffff1673ffffffffffffffffffffffffffffffffffffffff168152602001908152602001600020549050919050565b6040518060800160405280605781526020016124266057913981565b60606001805461083d90611fe7565b80601f016020809104026020016040519081016040528092919081815260200182805461086990611fe7565b80156108b65780601f1061088b576101008083540402835291602001916108b6565b820191906000526020600020905b81548152906001019060200180831161089957829003601f168201915b5050505050905090565b6108d26108cb610aa3565b8383610f4e565b5050565b6108e76108e1610aa3565b83610b82565b610926576040517f08c379a000000000000000000000000000000000000000000000000000000000815260040161091d90611c9e565b60405180910390fd5b610932848484846110bb565b50505050565b6060604051806080016040528060578152602001612426605791399050919050565b6000600560008473ffffffffffffffffffffffffffffffffffffffff1673ffffffffffffffffffffffffffffffffffffffff16815260200190815260200160002060008373ffffffffffffffffffffffffffffffffffffffff1673ffffffffffffffffffffffffffffffffffffffff16815260200190815260200160002060009054906101000a900460ff16905092915050565b60007f01ffc9a7000000000000000000000000000000000000000000000000000000007bffffffffffffffffffffffffffffffffffffffffffffffffffffffff1916827bffffffffffffffffffffffffffffffffffffffffffffffffffffffff1916149050919050565b610a6181611117565b610aa0576040517f08c379a0000000000000000000000000000000000000000000000000000000008152600401610a9790611d9e565b60405180910390fd5b50565b600033905090565b816004600083815260200190815260200160002060006101000a81548173ffffffffffffffffffffffffffffffffffffffff021916908373ffffffffffffffffffffffffffffffffffffffff160217905550808273ffffffffffffffffffffffffffffffffffffffff16610b1e836106c9565b73ffffffffffffffffffffffffffffffffffffffff167f8c5be1e5ebec7d5bd14f71427d1e84f3dd0314c0f7b2291e5b200ac8c7c3b92560405160405180910390a45050565b610b7e828260405180602001604052806000815250611158565b5050565b600080610b8e836106c9565b90508073ffffffffffffffffffffffffffffffffffffffff168473ffffffffffffffffffffffffffffffffffffffff161480610bd05750610bcf818561095a565b5b80610c0e57508373ffffffffffffffffffffffffffffffffffffffff16610bf6846104bb565b73ffffffffffffffffffffffffffffffffffffffff16145b91505092915050565b8273ffffffffffffffffffffffffffffffffffffffff16610c37826106c9565b73ffffffffffffffffffffffffffffffffffffffff1614610c8d576040517f08c379a0000000000000000000000000000000000000000000000000000000008152600401610c8490611cde565b60405180910390fd5b600073ffffffffffffffffffffffffffffffffffffffff168273ffffffffffffffffffffffffffffffffffffffff161415610cfd576040517f08c379a0000000000000000000000000000000000000000000000000000000008152600401610cf490611d1e565b60405180910390fd5b610d0a83838360016111b3565b8273ffffffffffffffffffffffffffffffffffffffff16610d2a826106c9565b73ffffffffffffffffffffffffffffffffffffffff1614610d80576040517f08c379a0000000000000000000000000000000000000000000000000000000008152600401610d7790611cde565b60405180910390fd5b6004600082815260200190815260200160002060006101000a81549073ffffffffffffffffffffffffffffffffffffffff02191690556001600360008573ffffffffffffffffffffffffffffffffffffffff1673ffffffffffffffffffffffffffffffffffffffff168152602001908152602001600020600082825403925050819055506001600360008473ffffffffffffffffffffffffffffffffffffffff1673ffffffffffffffffffffffffffffffffffffffff16815260200190815260200160002060008282540192505081905550816002600083815260200190815260200160002060006101000a81548173ffffffffffffffffffffffffffffffffffffffff021916908373ffffffffffffffffffffffffffffffffffffffff160217905550808273ffffffffffffffffffffffffffffffffffffffff168473ffffffffffffffffffffffffffffffffffffffff167fddf252ad1be2c89b69c2b068fc378daa952ba7f163c4a11628f55a4df523b3ef60405160405180910390a4610f0c83838360016112d9565b505050565b60006002600083815260200190815260200160002060009054906101000a900473ffffffffffffffffffffffffffffffffffffffff169050919050565b8173ffffffffffffffffffffffffffffffffffffffff168373ffffffffffffffffffffffffffffffffffffffff161415610fbd576040517f08c379a0000000000000000000000000000000000000000000000000000000008152600401610fb490611d3e565b60405180910390fd5b80600560008573ffffffffffffffffffffffffffffffffffffffff1673ffffffffffffffffffffffffffffffffffffffff16815260200190815260200160002060008473ffffffffffffffffffffffffffffffffffffffff1673ffffffffffffffffffffffffffffffffffffffff16815260200190815260200160002060006101000a81548160ff0219169083151502179055508173ffffffffffffffffffffffffffffffffffffffff168373ffffffffffffffffffffffffffffffffffffffff167f17307eab39ab6107e8899845ad3d59bd9653f200f220920489ca2b5937696c31836040516110ae9190611c61565b60405180910390a3505050565b6110c6848484610c17565b6110d2848484846112df565b611111576040517f08c379a000000000000000000000000000000000000000000000000000000000815260040161110890611cbe565b60405180910390fd5b50505050565b60008073ffffffffffffffffffffffffffffffffffffffff1661113983610f11565b73ffffffffffffffffffffffffffffffffffffffff1614159050919050565b6111628383611476565b61116f60008484846112df565b6111ae576040517f08c379a00000000000000000000000000000000000000000000000000000000081526004016111a590611cbe565b60405180910390fd5b505050565b60018111156112d357600073ffffffffffffffffffffffffffffffffffffffff168473ffffffffffffffffffffffffffffffffffffffff16146112475780600360008673ffffffffffffffffffffffffffffffffffffffff1673ffffffffffffffffffffffffffffffffffffffff168152602001908152602001600020600082825461123f9190611efd565b925050819055505b600073ffffffffffffffffffffffffffffffffffffffff168373ffffffffffffffffffffffffffffffffffffffff16146112d25780600360008573ffffffffffffffffffffffffffffffffffffffff1673ffffffffffffffffffffffffffffffffffffffff16815260200190815260200160002060008282546112ca9190611ea7565b925050819055505b5b50505050565b50505050565b60006113008473ffffffffffffffffffffffffffffffffffffffff16611694565b15611469578373ffffffffffffffffffffffffffffffffffffffff1663150b7a02611329610aa3565b8786866040518563ffffffff1660e01b815260040161134b9493929190611c15565b602060405180830381600087803b15801561136557600080fd5b505af192505050801561139657506040513d601f19601f820116820180604052508101906113939190611980565b60015b611419573d80600081146113c6576040519150601f19603f3d011682016040523d82523d6000602084013e6113cb565b606091505b50600081511415611411576040517f08c379a000000000000000000000000000000000000000000000000000000000815260040161140890611cbe565b60405180910390fd5b805181602001fd5b63150b7a0260e01b7bffffffffffffffffffffffffffffffffffffffffffffffffffffffff1916817bffffffffffffffffffffffffffffffffffffffffffffffffffffffff19161491505061146e565b600190505b949350505050565b600073ffffffffffffffffffffffffffffffffffffffff168273ffffffffffffffffffffffffffffffffffffffff1614156114e6576040517f08c379a00000000000000000000000000000000000000000000000000000000081526004016114dd90611d7e565b60405180910390fd5b6114ef81611117565b1561152f576040517f08c379a000000000000000000000000000000000000000000000000000000000815260040161152690611cfe565b60405180910390fd5b61153d6000838360016111b3565b61154681611117565b15611586576040517f08c379a000000000000000000000000000000000000000000000000000000000815260040161157d90611cfe565b60405180910390fd5b6001600360008473ffffffffffffffffffffffffffffffffffffffff1673ffffffffffffffffffffffffffffffffffffffff16815260200190815260200160002060008282540192505081905550816002600083815260200190815260200160002060006101000a81548173ffffffffffffffffffffffffffffffffffffffff021916908373ffffffffffffffffffffffffffffffffffffffff160217905550808273ffffffffffffffffffffffffffffffffffffffff16600073ffffffffffffffffffffffffffffffffffffffff167fddf252ad1be2c89b69c2b068fc378daa952ba7f163c4a11628f55a4df523b3ef60405160405180910390a46116906000838360016112d9565b5050565b6000808273ffffffffffffffffffffffffffffffffffffffff163b119050919050565b60006116ca6116c584611e3e565b611e19565b9050828152602081018484840111156116e6576116e56120dc565b5b6116f1848285611fa5565b509392505050565b600081359050611708816123c9565b92915050565b60008135905061171d816123e0565b92915050565b600081359050611732816123f7565b92915050565b600081519050611747816123f7565b92915050565b600082601f830112611762576117616120d7565b5b81356117728482602086016116b7565b91505092915050565b60008135905061178a8161240e565b92915050565b6000602082840312156117a6576117a56120e6565b5b60006117b4848285016116f9565b91505092915050565b600080604083850312156117d4576117d36120e6565b5b60006117e2858286016116f9565b92505060206117f3858286016116f9565b9150509250929050565b600080600060608486031215611816576118156120e6565b5b6000611824868287016116f9565b9350506020611835868287016116f9565b92505060406118468682870161177b565b9150509250925092565b6000806000806080858703121561186a576118696120e6565b5b6000611878878288016116f9565b9450506020611889878288016116f9565b935050604061189a8782880161177b565b925050606085013567ffffffffffffffff8111156118bb576118ba6120e1565b5b6118c78782880161174d565b91505092959194509250565b600080604083850312156118ea576118e96120e6565b5b60006118f8858286016116f9565b92505060206119098582860161170e565b9150509250929050565b6000806040838503121561192a576119296120e6565b5b6000611938858286016116f9565b92505060206119498582860161177b565b9150509250929050565b600060208284031215611969576119686120e6565b5b600061197784828501611723565b91505092915050565b600060208284031215611996576119956120e6565b5b60006119a484828501611738565b91505092915050565b6000602082840312156119c3576119c26120e6565b5b60006119d18482850161177b565b91505092915050565b6119e381611f31565b82525050565b6119f281611f43565b82525050565b6000611a0382611e6f565b611a0d8185611e85565b9350611a1d818560208601611fb4565b611a26816120eb565b840191505092915050565b6000611a3c82611e7a565b611a468185611e96565b9350611a56818560208601611fb4565b611a5f816120eb565b840191505092915050565b6000611a77602d83611e96565b9150611a82826120fc565b604082019050919050565b6000611a9a603283611e96565b9150611aa58261214b565b604082019050919050565b6000611abd602583611e96565b9150611ac88261219a565b604082019050919050565b6000611ae0601c83611e96565b9150611aeb826121e9565b602082019050919050565b6000611b03602483611e96565b9150611b0e82612212565b604082019050919050565b6000611b26601983611e96565b9150611b3182612261565b602082019050919050565b6000611b49602983611e96565b9150611b548261228a565b604082019050919050565b6000611b6c602083611e96565b9150611b77826122d9565b602082019050919050565b6000611b8f601883611e96565b9150611b9a82612302565b602082019050919050565b6000611bb2602183611e96565b9150611bbd8261232b565b604082019050919050565b6000611bd5603d83611e96565b9150611be08261237a565b604082019050919050565b611bf481611f9b565b82525050565b6000602082019050611c0f60008301846119da565b92915050565b6000608082019050611c2a60008301876119da565b611c3760208301866119da565b611c446040830185611beb565b8181036060830152611c5681846119f8565b905095945050505050565b6000602082019050611c7660008301846119e9565b92915050565b60006020820190508181036000830152611c968184611a31565b905092915050565b60006020820190508181036000830152611cb781611a6a565b9050919050565b60006020820190508181036000830152611cd781611a8d565b9050919050565b60006020820190508181036000830152611cf781611ab0565b9050919050565b60006020820190508181036000830152611d1781611ad3565b9050919050565b60006020820190508181036000830152611d3781611af6565b9050919050565b60006020820190508181036000830152611d5781611b19565b9050919050565b60006020820190508181036000830152611d7781611b3c565b9050919050565b60006020820190508181036000830152611d9781611b5f565b9050919050565b60006020820190508181036000830152611db781611b82565b9050919050565b60006020820190508181036000830152611dd781611ba5565b9050919050565b60006020820190508181036000830152611df781611bc8565b9050919050565b6000602082019050611e136000830184611beb565b92915050565b6000611e23611e34565b9050611e2f8282612019565b919050565b6000604051905090565b600067ffffffffffffffff821115611e5957611e586120a8565b5b611e62826120eb565b9050602081019050919050565b600081519050919050565b600081519050919050565b600082825260208201905092915050565b600082825260208201905092915050565b6000611eb282611f9b565b9150611ebd83611f9b565b9250827fffffffffffffffffffffffffffffffffffffffffffffffffffffffffffffffff03821115611ef257611ef161204a565b5b828201905092915050565b6000611f0882611f9b565b9150611f1383611f9b565b925082821015611f2657611f2561204a565b5b828203905092915050565b6000611f3c82611f7b565b9050919050565b60008115159050919050565b60007fffffffff0000000000000000000000000000000000000000000000000000000082169050919050565b600073ffffffffffffffffffffffffffffffffffffffff82169050919050565b6000819050919050565b82818337600083830152505050565b60005b83811015611fd2578082015181840152602081019050611fb7565b83811115611fe1576000848401525b50505050565b60006002820490506001821680611fff57607f821691505b6020821081141561201357612012612079565b5b50919050565b612022826120eb565b810181811067ffffffffffffffff82111715612041576120406120a8565b5b80604052505050565b7f4e487b7100000000000000000000000000000000000000000000000000000000600052601160045260246000fd5b7f4e487b7100000000000000000000000000000000000000000000000000000000600052602260045260246000fd5b7f4e487b7100000000000000000000000000000000000000000000000000000000600052604160045260246000fd5b600080fd5b600080fd5b600080fd5b600080fd5b6000601f19601f8301169050919050565b7f4552433732313a2063616c6c6572206973206e6f7420746f6b656e206f776e6560008201527f72206f7220617070726f76656400000000000000000000000000000000000000602082015250565b7f4552433732313a207472616e7366657220746f206e6f6e20455243373231526560008201527f63656976657220696d706c656d656e7465720000000000000000000000000000602082015250565b7f4552433732313a207472616e736665722066726f6d20696e636f72726563742060008201527f6f776e6572000000000000000000000000000000000000000000000000000000602082015250565b7f4552433732313a20746f6b656e20616c7265616479206d696e74656400000000600082015250565b7f4552433732313a207472616e7366657220746f20746865207a65726f2061646460008201527f7265737300000000000000000000000000000000000000000000000000000000602082015250565b7f4552433732313a20617070726f766520746f2063616c6c657200000000000000600082015250565b7f4552433732313a2061646472657373207a65726f206973206e6f74206120766160008201527f6c6964206f776e65720000000000000000000000000000000000000000000000602082015250565b7f4552433732313a206d696e7420746f20746865207a65726f2061646472657373600082015250565b7f4552433732313a20696e76616c696420746f6b656e2049440000000000000000600082015250565b7f4552433732313a20617070726f76616c20746f2063757272656e74206f776e6560008201527f7200000000000000000000000000000000000000000000000000000000000000602082015250565b7f4552433732313a20617070726f76652063616c6c6572206973206e6f7420746f60008201527f6b656e206f776e6572206f7220617070726f76656420666f7220616c6c000000602082015250565b6123d281611f31565b81146123dd57600080fd5b50565b6123e981611f43565b81146123f457600080fd5b50565b61240081611f4f565b811461240b57600080fd5b50565b61241781611f9b565b811461242257600080fd5b5056fe697066733a2f2f62616679626569673337696f6972373673376d67356f6f6265746e636f6a636d3363336878617379643472766964346a71687934676b61686567342f3f66696c656e616d653d302d5055472e6a736f6ea2646970667358221220c0da458150b84f344756500314949c85b00339430a793b1d0257a09e1ab0510864736f6c63430008070033",
  "linkReferences": {},
  "deployedLinkReferences": {}
}