{
  "_format": "hh-sol-artifact-1",
  "contractName": "NftMarketplace",
  "sourceName": "contracts/NftMarketplace.sol",
  "abi": [
    {
      "inputs": [
        {
          "internalType": "address",
          "name": "nftAddress",
          "type": "address"
        },
        {
          "internalType": "uint256",
          "name": "tokenId",
          "type": "uint256"
        }
      ],
      "name": "NftMarketplace__AlreadyListed",
      "type": "error"
    },
    {
      "inputs": [],
      "name": "NftMarketplace__ListerNotOwner",
      "type": "error"
    },
    {
      "inputs": [],
      "name": "NftMarketplace__NoProceedsToWithdraw",
      "type": "error"
    },
    {
      "inputs": [],
      "name": "NftMarketplace__NotApproved",
      "type": "error"
    },
    {
      "inputs": [
        {
          "internalType": "address",
          "name": "nftAddress",
          "type": "address"
        },
        {
          "internalType": "uint256",
          "name": "tokenId",
          "type": "uint256"
        }
      ],
      "name": "NftMarketplace__NotListed",
      "type": "error"
    },
    {
      "inputs": [
        {
          "internalType": "address",
          "name": "nftAddress",
          "type": "address"
        },
        {
          "internalType": "uint256",
          "name": "tokenId",
          "type": "uint256"
        },
        {
          "internalType": "uint256",
          "name": "price",
          "type": "uint256"
        }
      ],
      "name": "NftMarketplace__OfferLessThenListingPrice",
      "type": "error"
    },
    {
      "inputs": [],
      "name": "NftMarketplace__PriceFloorTooLow",
      "type": "error"
    },
    {
      "inputs": [],
      "name": "NftMarketplace__TransferFailed",
      "type": "error"
    },
    {
      "anonymous": false,
      "inputs": [
        {
          "indexed": true,
          "internalType": "address",
          "name": "buyer",
          "type": "address"
        },
        {
          "indexed": true,
          "internalType": "address",
          "name": "nftAddress",
          "type": "address"
        },
        {
          "indexed": false,
          "internalType": "uint256",
          "name": "tokenId",
          "type": "uint256"
        },
        {
          "indexed": false,
          "internalType": "uint256",
          "name": "price",
          "type": "uint256"
        }
      ],
      "name": "ItemBought",
      "type": "event"
    },
    {
      "anonymous": false,
      "inputs": [
        {
          "indexed": true,
          "internalType": "address",
          "name": "seller",
          "type": "address"
        },
        {
          "indexed": true,
          "internalType": "address",
          "name": "nftAddress",
          "type": "address"
        },
        {
          "indexed": true,
          "internalType": "uint256",
          "name": "tokenId",
          "type": "uint256"
        }
      ],
      "name": "ItemCanceled",
      "type": "event"
    },
    {
      "anonymous": false,
      "inputs": [
        {
          "indexed": true,
          "internalType": "address",
          "name": "seller",
          "type": "address"
        },
        {
          "indexed": true,
          "internalType": "address",
          "name": "nftAddress",
          "type": "address"
        },
        {
          "indexed": true,
          "internalType": "uint256",
          "name": "tokenId",
          "type": "uint256"
        },
        {
          "indexed": false,
          "internalType": "uint256",
          "name": "price",
          "type": "uint256"
        }
      ],
      "name": "ItemListed",
      "type": "event"
    },
    {
      "inputs": [
        {
          "internalType": "address",
          "name": "nftAddress",
          "type": "address"
        },
        {
          "internalType": "uint256",
          "name": "tokenId",
          "type": "uint256"
        }
      ],
      "name": "buyItem",
      "outputs": [],
      "stateMutability": "payable",
      "type": "function"
    },
    {
      "inputs": [
        {
          "internalType": "address",
          "name": "nftAddress",
          "type": "address"
        },
        {
          "internalType": "uint256",
          "name": "tokenId",
          "type": "uint256"
        }
      ],
      "name": "cancelListing",
      "outputs": [],
      "stateMutability": "nonpayable",
      "type": "function"
    },
    {
      "inputs": [
        {
          "internalType": "address",
          "name": "nftAddress",
          "type": "address"
        },
        {
          "internalType": "uint256",
          "name": "tokenId",
          "type": "uint256"
        }
      ],
      "name": "getListing",
      "outputs": [
        {
          "components": [
            {
              "internalType": "uint256",
              "name": "price",
              "type": "uint256"
            },
            {
              "internalType": "address",
              "name": "seller",
              "type": "address"
            }
          ],
          "internalType": "struct NftMarketplace.Listing",
          "name": "",
          "type": "tuple"
        }
      ],
      "stateMutability": "view",
      "type": "function"
    },
    {
      "inputs": [
        {
          "internalType": "address",
          "name": "nftAddress",
          "type": "address"
        },
        {
          "internalType": "uint256",
          "name": "tokenId",
          "type": "uint256"
        }
      ],
      "name": "getListingPrice",
      "outputs": [
        {
          "internalType": "uint256",
          "name": "",
          "type": "uint256"
        }
      ],
      "stateMutability": "view",
      "type": "function"
    },
    {
      "inputs": [
        {
          "internalType": "address",
          "name": "seller",
          "type": "address"
        }
      ],
      "name": "getProceeds",
      "outputs": [
        {
          "internalType": "uint256",
          "name": "",
          "type": "uint256"
        }
      ],
      "stateMutability": "view",
      "type": "function"
    },
    {
      "inputs": [
        {
          "internalType": "address",
          "name": "nftAddress",
          "type": "address"
        },
        {
          "internalType": "uint256",
          "name": "tokenId",
          "type": "uint256"
        },
        {
          "internalType": "uint256",
          "name": "price",
          "type": "uint256"
        }
      ],
      "name": "listItem",
      "outputs": [],
      "stateMutability": "nonpayable",
      "type": "function"
    },
    {
      "inputs": [
        {
          "internalType": "address",
          "name": "nftAddress",
          "type": "address"
        },
        {
          "internalType": "uint256",
          "name": "tokenId",
          "type": "uint256"
        },
        {
          "internalType": "uint256",
          "name": "updatedPrice",
          "type": "uint256"
        }
      ],
      "name": "updateListing",
      "outputs": [],
      "stateMutability": "nonpayable",
      "type": "function"
    },
    {
      "inputs": [],
      "name": "withdrawProceeds",
      "outputs": [],
      "stateMutability": "nonpayable",
      "type": "function"
    }
  ],
  "bytecode": "0x608060405234801561001057600080fd5b5060016000819055506117eb806100286000396000f3fe60806040526004361061007b5760003560e01c80639038e6931161004e5780639038e693146101605780639f37092a14610177578063b2ddee0614610193578063f772adf1146101bc5761007b565b806306d783971461008057806330cfeda9146100bd57806388700d1c146100fa57806389bfd38f14610137575b600080fd5b34801561008c57600080fd5b506100a760048036038101906100a2919061140a565b6101e5565b6040516100b49190611635565b60405180910390f35b3480156100c957600080fd5b506100e460048036038101906100df91906113b0565b610243565b6040516100f19190611635565b60405180910390f35b34801561010657600080fd5b50610121600480360381019061011c919061140a565b61028c565b60405161012e919061161a565b60405180910390f35b34801561014357600080fd5b5061015e6004803603810190610159919061144a565b610357565b005b34801561016c57600080fd5b506101756107cf565b005b610191600480360381019061018c919061140a565b610939565b005b34801561019f57600080fd5b506101ba60048036038101906101b5919061140a565b610d27565b005b3480156101c857600080fd5b506101e360048036038101906101de919061144a565b611016565b005b6000600160008473ffffffffffffffffffffffffffffffffffffffff1673ffffffffffffffffffffffffffffffffffffffff168152602001908152602001600020600083815260200190815260200160002060000154905092915050565b6000600260008373ffffffffffffffffffffffffffffffffffffffff1673ffffffffffffffffffffffffffffffffffffffff168152602001908152602001600020549050919050565b610294611341565b600160008473ffffffffffffffffffffffffffffffffffffffff1673ffffffffffffffffffffffffffffffffffffffff1681526020019081526020016000206000838152602001908152602001600020604051806040016040529081600082015481526020016001820160009054906101000a900473ffffffffffffffffffffffffffffffffffffffff1673ffffffffffffffffffffffffffffffffffffffff1673ffffffffffffffffffffffffffffffffffffffff1681525050905092915050565b8282336000600160008573ffffffffffffffffffffffffffffffffffffffff1673ffffffffffffffffffffffffffffffffffffffff1681526020019081526020016000206000848152602001908152602001600020604051806040016040529081600082015481526020016001820160009054906101000a900473ffffffffffffffffffffffffffffffffffffffff1673ffffffffffffffffffffffffffffffffffffffff1673ffffffffffffffffffffffffffffffffffffffff168152505090506000816000015111156104655783836040517fc2f0d70900000000000000000000000000000000000000000000000000000000815260040161045c92919061159a565b60405180910390fd5b868633600083905060008173ffffffffffffffffffffffffffffffffffffffff16636352211e856040518263ffffffff1660e01b81526004016104a89190611635565b60206040518083038186803b1580156104c057600080fd5b505afa1580156104d4573d6000803e3d6000fd5b505050506040513d601f19601f820116820180604052508101906104f891906113dd565b90508273ffffffffffffffffffffffffffffffffffffffff168173ffffffffffffffffffffffffffffffffffffffff161461055f576040517f43485a6300000000000000000000000000000000000000000000000000000000815260040160405180910390fd5b60008a11610599576040517ff683693d00000000000000000000000000000000000000000000000000000000815260040160405180910390fd5b60008c90503073ffffffffffffffffffffffffffffffffffffffff168173ffffffffffffffffffffffffffffffffffffffff1663081812fc8e6040518263ffffffff1660e01b81526004016105ee9190611635565b60206040518083038186803b15801561060657600080fd5b505afa15801561061a573d6000803e3d6000fd5b505050506040513d601f19601f8201168201806040525081019061063e91906113dd565b73ffffffffffffffffffffffffffffffffffffffff161461068b576040517f8189633e00000000000000000000000000000000000000000000000000000000815260040160405180910390fd5b60405180604001604052808c81526020013373ffffffffffffffffffffffffffffffffffffffff16815250600160008f73ffffffffffffffffffffffffffffffffffffffff1673ffffffffffffffffffffffffffffffffffffffff16815260200190815260200160002060008e81526020019081526020016000206000820151816000015560208201518160010160006101000a81548173ffffffffffffffffffffffffffffffffffffffff021916908373ffffffffffffffffffffffffffffffffffffffff1602179055509050508b8d73ffffffffffffffffffffffffffffffffffffffff163373ffffffffffffffffffffffffffffffffffffffff167fd547e933094f12a9159076970143ebe73234e64480317844b0dcb36117116de48e6040516107b89190611635565b60405180910390a450505050505050505050505050565b6000600260003373ffffffffffffffffffffffffffffffffffffffff1673ffffffffffffffffffffffffffffffffffffffff1681526020019081526020016000205490506000811161084d576040517f33b399d200000000000000000000000000000000000000000000000000000000815260040160405180910390fd5b6000600260003373ffffffffffffffffffffffffffffffffffffffff1673ffffffffffffffffffffffffffffffffffffffff1681526020019081526020016000208190555060003373ffffffffffffffffffffffffffffffffffffffff16826040516108b89061154e565b60006040518083038185875af1925050503d80600081146108f5576040519150601f19603f3d011682016040523d82523d6000602084013e6108fa565b606091505b5050905080610935576040517fa05884ba00000000000000000000000000000000000000000000000000000000815260040160405180910390fd5b5050565b6109416112e7565b81816000600160008473ffffffffffffffffffffffffffffffffffffffff1673ffffffffffffffffffffffffffffffffffffffff1681526020019081526020016000206000838152602001908152602001600020604051806040016040529081600082015481526020016001820160009054906101000a900473ffffffffffffffffffffffffffffffffffffffff1673ffffffffffffffffffffffffffffffffffffffff1673ffffffffffffffffffffffffffffffffffffffff168152505090506000816000015111610a4d5782826040517f6d350f22000000000000000000000000000000000000000000000000000000008152600401610a4492919061159a565b60405180910390fd5b6000600160008773ffffffffffffffffffffffffffffffffffffffff1673ffffffffffffffffffffffffffffffffffffffff1681526020019081526020016000206000868152602001908152602001600020604051806040016040529081600082015481526020016001820160009054906101000a900473ffffffffffffffffffffffffffffffffffffffff1673ffffffffffffffffffffffffffffffffffffffff1673ffffffffffffffffffffffffffffffffffffffff168152505090508060000151341015610b5d57858582600001516040517f9161be81000000000000000000000000000000000000000000000000000000008152600401610b54939291906115c3565b60405180910390fd5b3460026000836020015173ffffffffffffffffffffffffffffffffffffffff1673ffffffffffffffffffffffffffffffffffffffff1681526020019081526020016000206000828254610bb09190611695565b92505081905550600160008773ffffffffffffffffffffffffffffffffffffffff1673ffffffffffffffffffffffffffffffffffffffff16815260200190815260200160002060008681526020019081526020016000206000808201600090556001820160006101000a81549073ffffffffffffffffffffffffffffffffffffffff021916905550508573ffffffffffffffffffffffffffffffffffffffff166342842e0e826020015133886040518463ffffffff1660e01b8152600401610c7a93929190611563565b600060405180830381600087803b158015610c9457600080fd5b505af1158015610ca8573d6000803e3d6000fd5b505050508573ffffffffffffffffffffffffffffffffffffffff163373ffffffffffffffffffffffffffffffffffffffff167f263223b1dd81e51054a4e6f791d45a4a1ddb4aadcd93a2dfd892615c3fdac187878460000151604051610d0f929190611650565b60405180910390a350505050610d23611337565b5050565b818133600083905060008173ffffffffffffffffffffffffffffffffffffffff16636352211e856040518263ffffffff1660e01b8152600401610d6a9190611635565b60206040518083038186803b158015610d8257600080fd5b505afa158015610d96573d6000803e3d6000fd5b505050506040513d601f19601f82011682018060405250810190610dba91906113dd565b90508273ffffffffffffffffffffffffffffffffffffffff168173ffffffffffffffffffffffffffffffffffffffff1614610e21576040517f43485a6300000000000000000000000000000000000000000000000000000000815260040160405180910390fd5b86866000600160008473ffffffffffffffffffffffffffffffffffffffff1673ffffffffffffffffffffffffffffffffffffffff1681526020019081526020016000206000838152602001908152602001600020604051806040016040529081600082015481526020016001820160009054906101000a900473ffffffffffffffffffffffffffffffffffffffff1673ffffffffffffffffffffffffffffffffffffffff1673ffffffffffffffffffffffffffffffffffffffff168152505090506000816000015111610f2d5782826040517f6d350f22000000000000000000000000000000000000000000000000000000008152600401610f2492919061159a565b60405180910390fd5b600160008b73ffffffffffffffffffffffffffffffffffffffff1673ffffffffffffffffffffffffffffffffffffffff16815260200190815260200160002060008a81526020019081526020016000206000808201600090556001820160006101000a81549073ffffffffffffffffffffffffffffffffffffffff02191690555050888a73ffffffffffffffffffffffffffffffffffffffff163373ffffffffffffffffffffffffffffffffffffffff167f9ba1a3cb55ce8d63d072a886f94d2a744f50cddf82128e897d0661f5ec62315860405160405180910390a450505050505050505050565b828233600083905060008173ffffffffffffffffffffffffffffffffffffffff16636352211e856040518263ffffffff1660e01b81526004016110599190611635565b60206040518083038186803b15801561107157600080fd5b505afa158015611085573d6000803e3d6000fd5b505050506040513d601f19601f820116820180604052508101906110a991906113dd565b90508273ffffffffffffffffffffffffffffffffffffffff168173ffffffffffffffffffffffffffffffffffffffff1614611110576040517f43485a6300000000000000000000000000000000000000000000000000000000815260040160405180910390fd5b87876000600160008473ffffffffffffffffffffffffffffffffffffffff1673ffffffffffffffffffffffffffffffffffffffff1681526020019081526020016000206000838152602001908152602001600020604051806040016040529081600082015481526020016001820160009054906101000a900473ffffffffffffffffffffffffffffffffffffffff1673ffffffffffffffffffffffffffffffffffffffff1673ffffffffffffffffffffffffffffffffffffffff16815250509050600081600001511161121c5782826040517f6d350f2200000000000000000000000000000000000000000000000000000000815260040161121392919061159a565b60405180910390fd5b88600160008d73ffffffffffffffffffffffffffffffffffffffff1673ffffffffffffffffffffffffffffffffffffffff16815260200190815260200160002060008c815260200190815260200160002060000181905550898b73ffffffffffffffffffffffffffffffffffffffff163373ffffffffffffffffffffffffffffffffffffffff167fd547e933094f12a9159076970143ebe73234e64480317844b0dcb36117116de48c6040516112d29190611635565b60405180910390a45050505050505050505050565b6002600054141561132d576040517f08c379a0000000000000000000000000000000000000000000000000000000008152600401611324906115fa565b60405180910390fd5b6002600081905550565b6001600081905550565b604051806040016040528060008152602001600073ffffffffffffffffffffffffffffffffffffffff1681525090565b60008135905061138081611787565b92915050565b60008151905061139581611787565b92915050565b6000813590506113aa8161179e565b92915050565b6000602082840312156113c6576113c5611756565b5b60006113d484828501611371565b91505092915050565b6000602082840312156113f3576113f2611756565b5b600061140184828501611386565b91505092915050565b6000806040838503121561142157611420611756565b5b600061142f85828601611371565b92505060206114408582860161139b565b9150509250929050565b60008060006060848603121561146357611462611756565b5b600061147186828701611371565b93505060206114828682870161139b565b92505060406114938682870161139b565b9150509250925092565b6114a6816116eb565b82525050565b6114b5816116eb565b82525050565b60006114c8600083611679565b91506114d38261175b565b600082019050919050565b60006114eb601f83611684565b91506114f68261175e565b602082019050919050565b6040820160008201516115176000850182611530565b50602082015161152a602085018261149d565b50505050565b6115398161171d565b82525050565b6115488161171d565b82525050565b6000611559826114bb565b9150819050919050565b600060608201905061157860008301866114ac565b61158560208301856114ac565b611592604083018461153f565b949350505050565b60006040820190506115af60008301856114ac565b6115bc602083018461153f565b9392505050565b60006060820190506115d860008301866114ac565b6115e5602083018561153f565b6115f2604083018461153f565b949350505050565b60006020820190508181036000830152611613816114de565b9050919050565b600060408201905061162f6000830184611501565b92915050565b600060208201905061164a600083018461153f565b92915050565b6000604082019050611665600083018561153f565b611672602083018461153f565b9392505050565b600081905092915050565b600082825260208201905092915050565b60006116a08261171d565b91506116ab8361171d565b9250827fffffffffffffffffffffffffffffffffffffffffffffffffffffffffffffffff038211156116e0576116df611727565b5b828201905092915050565b60006116f6826116fd565b9050919050565b600073ffffffffffffffffffffffffffffffffffffffff82169050919050565b6000819050919050565b7f4e487b7100000000000000000000000000000000000000000000000000000000600052601160045260246000fd5b600080fd5b50565b7f5265656e7472616e637947756172643a207265656e7472616e742063616c6c00600082015250565b611790816116eb565b811461179b57600080fd5b50565b6117a78161171d565b81146117b257600080fd5b5056fea2646970667358221220a713fcda2b5e27397aba56e88c015279a4193648220b7dc82f9e960005cf0fee64736f6c63430008070033",
  "linkReferences": {},
  "deployedLinkReferences": {}
}